{
  "fileName": "TodoList2.sol",
  "contractName": "TodoList2",
  "source": "// contracts/TodoList.sol\npragma solidity ^0.6.3;\n\ncontract TodoList2 {\n    string[] private list;\n\n    // Emitted when the storeda new item is added to the list\n    event ItemAdded(string item);\n\n    // Adds a new item in the list\n    function addItem(string memory newItem) public {\n        list.push(newItem);\n        emit ItemAdded(newItem);\n    }\n\n    // Gets the item from the list according to index\n    function getListItem(uint256 index)\n        public\n        view\n        returns (string memory item)\n    {\n        return list[index];\n    }\n\n    // Gets the size of the list\n    function getListSize() public view returns (uint256 size) {\n        return list.length;\n    }\n}\n",
  "sourcePath": "contracts/TodoList2.sol",
  "abi": [
    {
      "anonymous": false,
      "inputs": [
        {
          "indexed": false,
          "internalType": "string",
          "name": "item",
          "type": "string"
        }
      ],
      "name": "ItemAdded",
      "type": "event"
    },
    {
      "inputs": [
        {
          "internalType": "string",
          "name": "newItem",
          "type": "string"
        }
      ],
      "name": "addItem",
      "outputs": [],
      "stateMutability": "nonpayable",
      "type": "function"
    },
    {
      "inputs": [
        {
          "internalType": "uint256",
          "name": "index",
          "type": "uint256"
        }
      ],
      "name": "getListItem",
      "outputs": [
        {
          "internalType": "string",
          "name": "item",
          "type": "string"
        }
      ],
      "stateMutability": "view",
      "type": "function"
    },
    {
      "inputs": [],
      "name": "getListSize",
      "outputs": [
        {
          "internalType": "uint256",
          "name": "size",
          "type": "uint256"
        }
      ],
      "stateMutability": "view",
      "type": "function"
    }
  ],
  "bytecode": "0x608060405234801561001057600080fd5b50610441806100206000396000f3fe608060405234801561001057600080fd5b50600436106100415760003560e01c806327e9f294146100465780634a89a6c8146101015780636597441e1461011f575b600080fd5b6100ff6004803603602081101561005c57600080fd5b810190808035906020019064010000000081111561007957600080fd5b82018360208201111561008b57600080fd5b803590602001918460018302840111640100000000831117156100ad57600080fd5b91908080601f016020809104026020016040519081016040528093929190818152602001838380828437600081840152601f19601f8201169050808301925050505050505091929192905050506101c6565b005b6101096102a1565b6040518082815260200191505060405180910390f35b61014b6004803603602081101561013557600080fd5b81019080803590602001909291905050506102ad565b6040518080602001828103825283818151815260200191508051906020019080838360005b8381101561018b578082015181840152602081019050610170565b50505050905090810190601f1680156101b85780820380516001836020036101000a031916815260200191505b509250505060405180910390f35b600081908060018154018082558091505060019003906000526020600020016000909190919091509080519060200190610201929190610366565b507f916dba8b3d0828ab8a4dfe3c959b0179c946497efd42ea7d105d31923d459adf816040518080602001828103825283818151815260200191508051906020019080838360005b83811015610264578082015181840152602081019050610249565b50505050905090810190601f1680156102915780820380516001836020036101000a031916815260200191505b509250505060405180910390a150565b60008080549050905090565b6060600082815481106102bc57fe5b906000526020600020018054600181600116156101000203166002900480601f01602080910402602001604051908101604052809291908181526020018280546001816001161561010002031660029004801561035a5780601f1061032f5761010080835404028352916020019161035a565b820191906000526020600020905b81548152906001019060200180831161033d57829003601f168201915b50505050509050919050565b828054600181600116156101000203166002900490600052602060002090601f016020900481019282601f106103a757805160ff19168380011785556103d5565b828001600101855582156103d5579182015b828111156103d45782518255916020019190600101906103b9565b5b5090506103e291906103e6565b5090565b61040891905b808211156104045760008160009055506001016103ec565b5090565b9056fea26469706673582212201aea7942fec4ce0af065cae06f70ced981f1ba96aea99c12fc2e93274afdc7c964736f6c63430006030033",
  "compiler": {
    "name": "solc",
    "version": "0.6.3+commit.8dda9521.Emscripten.clang",
    "optimizer": {
      "enabled": false,
      "runs": 200
    },
    "evmVersion": "petersburg"
  }
}